{
  "_format": "hh-sol-artifact-1",
  "contractName": "MockVerifier",
  "sourceName": "contracts/MockVerifier.sol",
  "abi": [
    {
      "inputs": [
        {
          "components": [
            {
              "components": [
                {
                  "internalType": "bytes32",
                  "name": "dataHash",
                  "type": "bytes32"
                },
                {
                  "internalType": "bytes",
                  "name": "targetPubkey",
                  "type": "bytes"
                },
                {
                  "internalType": "bytes",
                  "name": "nonce",
                  "type": "bytes"
                },
                {
                  "internalType": "bytes",
                  "name": "proof",
                  "type": "bytes"
                }
              ],
              "internalType": "struct AccessProof",
              "name": "accessProof",
              "type": "tuple"
            },
            {
              "components": [
                {
                  "internalType": "enum OracleType",
                  "name": "oracleType",
                  "type": "uint8"
                },
                {
                  "internalType": "bytes32",
                  "name": "dataHash",
                  "type": "bytes32"
                },
                {
                  "internalType": "bytes",
                  "name": "sealedKey",
                  "type": "bytes"
                },
                {
                  "internalType": "bytes",
                  "name": "targetPubkey",
                  "type": "bytes"
                },
                {
                  "internalType": "bytes",
                  "name": "nonce",
                  "type": "bytes"
                },
                {
                  "internalType": "bytes",
                  "name": "proof",
                  "type": "bytes"
                }
              ],
              "internalType": "struct OwnershipProof",
              "name": "ownershipProof",
              "type": "tuple"
            }
          ],
          "internalType": "struct TransferValidityProof[]",
          "name": "proofs",
          "type": "tuple[]"
        }
      ],
      "name": "verifyTransferValidity",
      "outputs": [
        {
          "components": [
            {
              "internalType": "bytes32",
              "name": "dataHash",
              "type": "bytes32"
            },
            {
              "internalType": "bytes",
              "name": "sealedKey",
              "type": "bytes"
            },
            {
              "internalType": "bytes",
              "name": "targetPubkey",
              "type": "bytes"
            },
            {
              "internalType": "bytes",
              "name": "wantedKey",
              "type": "bytes"
            },
            {
              "internalType": "address",
              "name": "accessAssistant",
              "type": "address"
            },
            {
              "internalType": "bytes",
              "name": "accessProofNonce",
              "type": "bytes"
            },
            {
              "internalType": "bytes",
              "name": "ownershipProofNonce",
              "type": "bytes"
            }
          ],
          "internalType": "struct TransferValidityProofOutput[]",
          "name": "",
          "type": "tuple[]"
        }
      ],
      "stateMutability": "pure",
      "type": "function"
    }
  ],
  "bytecode": "0x6080604052348015600e575f5ffd5b5061063b8061001c5f395ff3fe608060405234801561000f575f5ffd5b5060043610610029575f3560e01c80634ca5fd691461002d575b5f5ffd5b61004061003b3660046103ba565b610056565b60405161004d9190610459565b60405180910390f35b60605f8267ffffffffffffffff8111156100725761007261054d565b6040519080825280602002602001820160405280156100ea57816020015b6100d76040518060e001604052805f81526020016060815260200160608152602001606081526020015f6001600160a01b0316815260200160608152602001606081525090565b8152602001906001900390816100905790505b5090505f5b838110156103b2576040518060e0016040528086868481811061011457610114610561565b90506020028101906101269190610575565b6101309080610593565b35815260200186868481811061014857610148610561565b905060200281019061015a9190610575565b6101689060208101906105a7565b6101769060408101906105bb565b8080601f0160208091040260200160405190810160405280939291908181526020018383808284375f920191909152505050908252506020018686848181106101c1576101c1610561565b90506020028101906101d39190610575565b6101e19060208101906105a7565b6101ef9060608101906105bb565b8080601f0160208091040260200160405190810160405280939291908181526020018383808284375f9201919091525050509082525060200186868481811061023a5761023a610561565b905060200281019061024c9190610575565b6102569080610593565b6102649060208101906105bb565b8080601f0160208091040260200160405190810160405280939291908181526020018383808284375f92018290525093855250505060208201526040018686848181106102b3576102b3610561565b90506020028101906102c59190610575565b6102cf9080610593565b6102dd9060408101906105bb565b8080601f0160208091040260200160405190810160405280939291908181526020018383808284375f9201919091525050509082525060200186868481811061032857610328610561565b905060200281019061033a9190610575565b6103489060208101906105a7565b6103569060808101906105bb565b8080601f0160208091040260200160405190810160405280939291908181526020018383808284375f920191909152505050915250825183908390811061039f5761039f610561565b60209081029190910101526001016100ef565b509392505050565b5f5f602083850312156103cb575f5ffd5b823567ffffffffffffffff8111156103e1575f5ffd5b8301601f810185136103f1575f5ffd5b803567ffffffffffffffff811115610407575f5ffd5b8560208260051b840101111561041b575f5ffd5b6020919091019590945092505050565b5f81518084528060208401602086015e5f602082860101526020601f19601f83011685010191505092915050565b5f602082016020835280845180835260408501915060408160051b8601019250602086015f5b8281101561054157603f19878603018452815180518652602081015160e060208801526104af60e088018261042b565b9050604082015187820360408901526104c8828261042b565b915050606082015187820360608901526104e2828261042b565b91505060018060a01b03608083015116608088015260a082015187820360a089015261050e828261042b565b91505060c0820151915086810360c088015261052a818361042b565b96505050602093840193919091019060010161047f565b50929695505050505050565b634e487b7160e01b5f52604160045260245ffd5b634e487b7160e01b5f52603260045260245ffd5b5f8235603e19833603018112610589575f5ffd5b9190910192915050565b5f8235607e19833603018112610589575f5ffd5b5f823560be19833603018112610589575f5ffd5b5f5f8335601e198436030181126105d0575f5ffd5b83018035915067ffffffffffffffff8211156105ea575f5ffd5b6020019150368190038213156105fe575f5ffd5b925092905056fea264697066735822122000524857238bfe1a372f89c82f31f3cb7335303b4c071bb86b255a69787c31f164736f6c634300081c0033",
  "linkReferences": {},
  "deployedLinkReferences": {}
}